{
  "_format": "hh-sol-artifact-1",
  "contractName": "mintContractParent",
  "sourceName": "contracts/mintContractParent.sol",
  "abi": [
    {
      "anonymous": false,
      "inputs": [
        {
          "indexed": true,
          "internalType": "address",
          "name": "previousOwner",
          "type": "address"
        },
        {
          "indexed": true,
          "internalType": "address",
          "name": "newOwner",
          "type": "address"
        }
      ],
      "name": "OwnershipTransferred",
      "type": "event"
    },
    {
      "anonymous": false,
      "inputs": [
        {
          "indexed": false,
          "internalType": "address",
          "name": "",
          "type": "address"
        },
        {
          "indexed": false,
          "internalType": "address",
          "name": "",
          "type": "address"
        }
      ],
      "name": "TokenCreated",
      "type": "event"
    },
    {
      "anonymous": false,
      "inputs": [
        {
          "indexed": false,
          "internalType": "address",
          "name": "",
          "type": "address"
        },
        {
          "indexed": false,
          "internalType": "address",
          "name": "",
          "type": "address"
        },
        {
          "indexed": false,
          "internalType": "address",
          "name": "",
          "type": "address"
        },
        {
          "indexed": false,
          "internalType": "uint256",
          "name": "",
          "type": "uint256"
        }
      ],
      "name": "TokenTransfered",
      "type": "event"
    },
    {
      "inputs": [
        {
          "internalType": "address",
          "name": "mintor",
          "type": "address"
        },
        {
          "internalType": "address",
          "name": "tokenAddress",
          "type": "address"
        },
        {
          "internalType": "uint256",
          "name": "start",
          "type": "uint256"
        },
        {
          "internalType": "uint256",
          "name": "end",
          "type": "uint256"
        },
        {
          "internalType": "uint256",
          "name": "price",
          "type": "uint256"
        }
      ],
      "name": "bulkMintERC721",
      "outputs": [],
      "stateMutability": "nonpayable",
      "type": "function"
    },
    {
      "inputs": [
        {
          "internalType": "address",
          "name": "tokenAddress",
          "type": "address"
        },
        {
          "internalType": "uint256",
          "name": "tokenId",
          "type": "uint256"
        },
        {
          "internalType": "string",
          "name": "tokenURI",
          "type": "string"
        }
      ],
      "name": "callURI",
      "outputs": [],
      "stateMutability": "nonpayable",
      "type": "function"
    },
    {
      "inputs": [
        {
          "internalType": "string",
          "name": "name",
          "type": "string"
        },
        {
          "internalType": "string",
          "name": "symbol",
          "type": "string"
        }
      ],
      "name": "createToken",
      "outputs": [],
      "stateMutability": "nonpayable",
      "type": "function"
    },
    {
      "inputs": [],
      "name": "getAllTokenIds",
      "outputs": [
        {
          "internalType": "uint256[]",
          "name": "",
          "type": "uint256[]"
        }
      ],
      "stateMutability": "view",
      "type": "function"
    },
    {
      "inputs": [],
      "name": "owner",
      "outputs": [
        {
          "internalType": "address",
          "name": "",
          "type": "address"
        }
      ],
      "stateMutability": "view",
      "type": "function"
    },
    {
      "inputs": [],
      "name": "renounceOwnership",
      "outputs": [],
      "stateMutability": "nonpayable",
      "type": "function"
    },
    {
      "inputs": [
        {
          "internalType": "address",
          "name": "newOwner",
          "type": "address"
        }
      ],
      "name": "transferOwnership",
      "outputs": [],
      "stateMutability": "nonpayable",
      "type": "function"
    },
    {
      "inputs": [
        {
          "internalType": "address",
          "name": "from",
          "type": "address"
        },
        {
          "internalType": "address payable",
          "name": "to",
          "type": "address"
        },
        {
          "internalType": "address",
          "name": "token",
          "type": "address"
        },
        {
          "internalType": "uint256",
          "name": "amount",
          "type": "uint256"
        }
      ],
      "name": "transferToken",
      "outputs": [],
      "stateMutability": "nonpayable",
      "type": "function"
    }
  ],
  "bytecode": "0x6080604052600060015534801561001557600080fd5b5061003261002761003760201b60201c565b61003f60201b60201c565b610103565b600033905090565b60008060009054906101000a900473ffffffffffffffffffffffffffffffffffffffff169050816000806101000a81548173ffffffffffffffffffffffffffffffffffffffff021916908373ffffffffffffffffffffffffffffffffffffffff1602179055508173ffffffffffffffffffffffffffffffffffffffff168173ffffffffffffffffffffffffffffffffffffffff167f8be0079c531659141344cd1fd0a4f28419497f9722a3daafe3b4186f6b6457e060405160405180910390a35050565b615a18806101126000396000f3fe60806040523480156200001157600080fd5b5060043610620000945760003560e01c80639d0df75d11620000635780639d0df75d1462000107578063bdbed7221462000127578063e770957f1462000149578063f2fde38b14620001695762000094565b80632c54de4f14620000995780632f2f2d5614620000b9578063715018a614620000d95780638da5cb5b14620000e5575b600080fd5b620000b76004803603810190620000b1919062000975565b62000189565b005b620000d76004803603810190620000d1919062000ad2565b62000243565b005b620000e362000332565b005b620000ef6200034a565b604051620000fe919062000d39565b60405180910390f35b6200012560048036038101906200011f9190620009e1565b62000373565b005b6200013162000451565b60405162000140919062000e61565b60405180910390f35b62000167600480360381019062000161919062000a63565b62000582565b005b62000187600480360381019062000181919062000949565b620005f8565b005b8173ffffffffffffffffffffffffffffffffffffffff166368155ec1858585856040518563ffffffff1660e01b8152600401620001ca949392919062000d83565b600060405180830381600087803b158015620001e557600080fd5b505af1158015620001fa573d6000803e3d6000fd5b505050507fa7814aaf178d6c8e61b2703f3dc1b8328dd6c99cbb405bf8f1bb0cb1bbb051a58484848460405162000235949392919062000dd0565b60405180910390a150505050565b600082826040516200025590620007d4565b6200026292919062000e85565b604051809103906000f0801580156200027f573d6000803e3d6000fd5b50905082600260008373ffffffffffffffffffffffffffffffffffffffff1673ffffffffffffffffffffffffffffffffffffffff1681526020019081526020016000209080519060200190620002d7929190620007e2565b5060016000815480929190620002ed9062001140565b91905055507fd5f9bdf12adf29dab0248c349842c3822d53ae2bb4f36352f301630d018c813933826040516200032592919062000d56565b60405180910390a1505050565b6200033c62000683565b62000348600062000708565b565b60008060009054906101000a900473ffffffffffffffffffffffffffffffffffffffff16905090565b60008390505b8281101562000449578473ffffffffffffffffffffffffffffffffffffffff1663cd279c7c8784600260008a73ffffffffffffffffffffffffffffffffffffffff1673ffffffffffffffffffffffffffffffffffffffff1681526020019081526020016000206040518463ffffffff1660e01b8152600401620003ff9392919062000e1d565b600060405180830381600087803b1580156200041a57600080fd5b505af11580156200042f573d6000803e3d6000fd5b505050508080620004409062001140565b91505062000379565b505050505050565b6060600060015467ffffffffffffffff81111562000498577f4e487b7100000000000000000000000000000000000000000000000000000000600052604160045260246000fd5b604051908082528060200260200182016040528015620004c75781602001602082028036833780820191505090505b50905060005b6001548110156200057a576003818154811062000513577f4e487b7100000000000000000000000000000000000000000000000000000000600052603260045260246000fd5b906000526020600020015482828151811062000558577f4e487b7100000000000000000000000000000000000000000000000000000000600052603260045260246000fd5b6020026020010181815250508080620005719062001140565b915050620004cd565b508091505090565b8273ffffffffffffffffffffffffffffffffffffffff1663162094c483836040518363ffffffff1660e01b8152600401620005bf92919062000f04565b600060405180830381600087803b158015620005da57600080fd5b505af1158015620005ef573d6000803e3d6000fd5b50505050505050565b6200060262000683565b600073ffffffffffffffffffffffffffffffffffffffff168173ffffffffffffffffffffffffffffffffffffffff16141562000675576040517f08c379a00000000000000000000000000000000000000000000000000000000081526004016200066c9062000ec0565b60405180910390fd5b620006808162000708565b50565b6200068d620007cc565b73ffffffffffffffffffffffffffffffffffffffff16620006ad6200034a565b73ffffffffffffffffffffffffffffffffffffffff161462000706576040517f08c379a0000000000000000000000000000000000000000000000000000000008152600401620006fd9062000ee2565b60405180910390fd5b565b60008060009054906101000a900473ffffffffffffffffffffffffffffffffffffffff169050816000806101000a81548173ffffffffffffffffffffffffffffffffffffffff021916908373ffffffffffffffffffffffffffffffffffffffff1602179055508173ffffffffffffffffffffffffffffffffffffffff168173ffffffffffffffffffffffffffffffffffffffff167f8be0079c531659141344cd1fd0a4f28419497f9722a3daafe3b4186f6b6457e060405160405180910390a35050565b600033905090565b6146f080620012f383390190565b828054620007f090620010d4565b90600052602060002090601f01602090048101928262000814576000855562000860565b82601f106200082f57805160ff191683800117855562000860565b8280016001018555821562000860579182015b828111156200085f57825182559160200191906001019062000842565b5b5090506200086f919062000873565b5090565b5b808211156200088e57600081600090555060010162000874565b5090565b6000620008a9620008a38462000f61565b62000f38565b905082815260208101848484011115620008c257600080fd5b620008cf8482856200108f565b509392505050565b600081359050620008e881620012a4565b92915050565b600081359050620008ff81620012be565b92915050565b600082601f8301126200091757600080fd5b81356200092984826020860162000892565b91505092915050565b6000813590506200094381620012d8565b92915050565b6000602082840312156200095c57600080fd5b60006200096c84828501620008d7565b91505092915050565b600080600080608085870312156200098c57600080fd5b60006200099c87828801620008d7565b9450506020620009af87828801620008ee565b9350506040620009c287828801620008d7565b9250506060620009d58782880162000932565b91505092959194509250565b600080600080600060a08688031215620009fa57600080fd5b600062000a0a88828901620008d7565b955050602062000a1d88828901620008d7565b945050604062000a308882890162000932565b935050606062000a438882890162000932565b925050608062000a568882890162000932565b9150509295509295909350565b60008060006060848603121562000a7957600080fd5b600062000a8986828701620008d7565b935050602062000a9c8682870162000932565b925050604084013567ffffffffffffffff81111562000aba57600080fd5b62000ac88682870162000905565b9150509250925092565b6000806040838503121562000ae657600080fd5b600083013567ffffffffffffffff81111562000b0157600080fd5b62000b0f8582860162000905565b925050602083013567ffffffffffffffff81111562000b2d57600080fd5b62000b3b8582860162000905565b9150509250929050565b600062000b53838362000d17565b60208301905092915050565b62000b6a8162001053565b82525050565b62000b7b8162001015565b82525050565b62000b8c8162001001565b82525050565b600062000b9f8262000fbc565b62000bab818562000fdf565b935062000bb88362000f97565b8060005b8381101562000bef57815162000bd3888262000b45565b975062000be08362000fd2565b92505060018101905062000bbc565b5085935050505092915050565b600062000c098262000fc7565b62000c15818562000ff0565b935062000c278185602086016200109e565b62000c32816200121b565b840191505092915050565b6000815462000c4c81620010d4565b62000c58818662000ff0565b9450600182166000811462000c76576001811462000c895762000cc0565b60ff198316865260208601935062000cc0565b62000c948562000fa7565b60005b8381101562000cb85781548189015260018201915060208101905062000c97565b808801955050505b50505092915050565b600062000cd860268362000ff0565b915062000ce5826200122c565b604082019050919050565b600062000cff60208362000ff0565b915062000d0c826200127b565b602082019050919050565b62000d228162001049565b82525050565b62000d338162001049565b82525050565b600060208201905062000d50600083018462000b81565b92915050565b600060408201905062000d6d600083018562000b81565b62000d7c602083018462000b81565b9392505050565b600060808201905062000d9a600083018762000b81565b62000da9602083018662000b70565b62000db8604083018562000b81565b62000dc7606083018462000d28565b95945050505050565b600060808201905062000de7600083018762000b81565b62000df6602083018662000b5f565b62000e05604083018562000b81565b62000e14606083018462000d28565b95945050505050565b600060608201905062000e34600083018662000b81565b62000e43602083018562000d28565b818103604083015262000e57818462000c3d565b9050949350505050565b6000602082019050818103600083015262000e7d818462000b92565b905092915050565b6000604082019050818103600083015262000ea1818562000bfc565b9050818103602083015262000eb7818462000bfc565b90509392505050565b6000602082019050818103600083015262000edb8162000cc9565b9050919050565b6000602082019050818103600083015262000efd8162000cf0565b9050919050565b600060408201905062000f1b600083018562000d28565b818103602083015262000f2f818462000bfc565b90509392505050565b600062000f4462000f57565b905062000f5282826200110a565b919050565b6000604051905090565b600067ffffffffffffffff82111562000f7f5762000f7e620011ec565b5b62000f8a826200121b565b9050602081019050919050565b6000819050602082019050919050565b60008190508160005260206000209050919050565b600081519050919050565b600081519050919050565b6000602082019050919050565b600082825260208201905092915050565b600082825260208201905092915050565b60006200100e8262001029565b9050919050565b6000620010228262001029565b9050919050565b600073ffffffffffffffffffffffffffffffffffffffff82169050919050565b6000819050919050565b6000620010608262001067565b9050919050565b600062001074826200107b565b9050919050565b6000620010888262001029565b9050919050565b82818337600083830152505050565b60005b83811015620010be578082015181840152602081019050620010a1565b83811115620010ce576000848401525b50505050565b60006002820490506001821680620010ed57607f821691505b60208210811415620011045762001103620011bd565b5b50919050565b62001115826200121b565b810181811067ffffffffffffffff82111715620011375762001136620011ec565b5b80604052505050565b60006200114d8262001049565b91507fffffffffffffffffffffffffffffffffffffffffffffffffffffffffffffffff8214156200118357620011826200118e565b5b600182019050919050565b7f4e487b7100000000000000000000000000000000000000000000000000000000600052601160045260246000fd5b7f4e487b7100000000000000000000000000000000000000000000000000000000600052602260045260246000fd5b7f4e487b7100000000000000000000000000000000000000000000000000000000600052604160045260246000fd5b6000601f19601f8301169050919050565b7f4f776e61626c653a206e6577206f776e657220697320746865207a65726f206160008201527f6464726573730000000000000000000000000000000000000000000000000000602082015250565b7f4f776e61626c653a2063616c6c6572206973206e6f7420746865206f776e6572600082015250565b620012af8162001001565b8114620012bb57600080fd5b50565b620012c98162001015565b8114620012d557600080fd5b50565b620012e38162001049565b8114620012ef57600080fd5b5056fe60806040523480156200001157600080fd5b50604051620046f0380380620046f0833981810160405281019062000037919062000197565b818181600090805190602001906200005192919062000075565b5080600190805190602001906200006a92919062000075565b50505050506200037a565b82805462000083906200029f565b90600052602060002090601f016020900481019282620000a75760008555620000f3565b82601f10620000c257805160ff1916838001178555620000f3565b82800160010185558215620000f3579182015b82811115620000f2578251825591602001919060010190620000d5565b5b50905062000102919062000106565b5090565b5b808211156200012157600081600090555060010162000107565b5090565b60006200013c620001368462000233565b6200020a565b9050828152602081018484840111156200015557600080fd5b6200016284828562000269565b509392505050565b600082601f8301126200017c57600080fd5b81516200018e84826020860162000125565b91505092915050565b60008060408385031215620001ab57600080fd5b600083015167ffffffffffffffff811115620001c657600080fd5b620001d4858286016200016a565b925050602083015167ffffffffffffffff811115620001f257600080fd5b62000200858286016200016a565b9150509250929050565b60006200021662000229565b9050620002248282620002d5565b919050565b6000604051905090565b600067ffffffffffffffff8211156200025157620002506200033a565b5b6200025c8262000369565b9050602081019050919050565b60005b83811015620002895780820151818401526020810190506200026c565b8381111562000299576000848401525b50505050565b60006002820490506001821680620002b857607f821691505b60208210811415620002cf57620002ce6200030b565b5b50919050565b620002e08262000369565b810181811067ffffffffffffffff821117156200030257620003016200033a565b5b80604052505050565b7f4e487b7100000000000000000000000000000000000000000000000000000000600052602260045260246000fd5b7f4e487b7100000000000000000000000000000000000000000000000000000000600052604160045260246000fd5b6000601f19601f8301169050919050565b614366806200038a6000396000f3fe60806040526004361061012a5760003560e01c806368155ec1116100ab578063a22cb4651161006f578063a22cb465146103fa578063b88d4fde14610423578063c87b56dd1461044c578063ca7dd37514610489578063cd279c7c146104c6578063e985e9c5146104ef5761012a565b806368155ec11461032257806370a082311461034b5780637fd6f15c1461038857806382d5a2a8146103b357806395d89b41146103cf5761012a565b806323b872dd116100f257806323b872dd1461022657806342842e0e1461024f57806351f28e14146102785780636352211e146102ba57806365e17c9d146102f75761012a565b806301ffc9a71461012f57806306fdde031461016c578063081812fc14610197578063095ea7b3146101d4578063162094c4146101fd575b600080fd5b34801561013b57600080fd5b5061015660048036038101906101519190612e99565b61052c565b604051610163919061359d565b60405180910390f35b34801561017857600080fd5b5061018161060e565b60405161018e91906135b8565b60405180910390f35b3480156101a357600080fd5b506101be60048036038101906101b99190612eeb565b6106a0565b6040516101cb919061344c565b60405180910390f35b3480156101e057600080fd5b506101fb60048036038101906101f69190612df6565b6106e6565b005b34801561020957600080fd5b50610224600480360381019061021f9190612f77565b6107fe565b005b34801561023257600080fd5b5061024d60048036038101906102489190612cf0565b61080c565b005b34801561025b57600080fd5b5061027660048036038101906102719190612cf0565b61086c565b005b34801561028457600080fd5b5061029f600480360381019061029a9190612eeb565b61088c565b6040516102b19695949392919061353c565b60405180910390f35b3480156102c657600080fd5b506102e160048036038101906102dc9190612eeb565b610935565b6040516102ee919061344c565b60405180910390f35b34801561030357600080fd5b5061030c6109e7565b6040516103199190613467565b60405180910390f35b34801561032e57600080fd5b5061034960048036038101906103449190612c8d565b610a0d565b005b34801561035757600080fd5b50610372600480360381019061036d9190612c28565b610b30565b60405161037f91906137ba565b60405180910390f35b34801561039457600080fd5b5061039d610be8565b6040516103aa91906137ba565b60405180910390f35b6103cd60048036038101906103c89190612f14565b610bee565b005b3480156103db57600080fd5b506103e4610fa7565b6040516103f191906135b8565b60405180910390f35b34801561040657600080fd5b50610421600480360381019061041c9190612dba565b611039565b005b34801561042f57600080fd5b5061044a60048036038101906104459190612d3f565b61104f565b005b34801561045857600080fd5b50610473600480360381019061046e9190612eeb565b6110b1565b60405161048091906135b8565b60405180910390f35b34801561049557600080fd5b506104b060048036038101906104ab9190612eeb565b6111c4565b6040516104bd91906137ba565b60405180910390f35b3480156104d257600080fd5b506104ed60048036038101906104e89190612e32565b611209565b005b3480156104fb57600080fd5b5061051660048036038101906105119190612c51565b61188f565b604051610523919061359d565b60405180910390f35b60007f80ac58cd000000000000000000000000000000000000000000000000000000007bffffffffffffffffffffffffffffffffffffffffffffffffffffffff1916827bffffffffffffffffffffffffffffffffffffffffffffffffffffffff191614806105f757507f5b5e139f000000000000000000000000000000000000000000000000000000007bffffffffffffffffffffffffffffffffffffffffffffffffffffffff1916827bffffffffffffffffffffffffffffffffffffffffffffffffffffffff1916145b80610607575061060682611923565b5b9050919050565b60606000805461061d90613adb565b80601f016020809104026020016040519081016040528092919081815260200182805461064990613adb565b80156106965780601f1061066b57610100808354040283529160200191610696565b820191906000526020600020905b81548152906001019060200180831161067957829003601f168201915b5050505050905090565b60006106ab8261198d565b6004600083815260200190815260200160002060009054906101000a900473ffffffffffffffffffffffffffffffffffffffff169050919050565b60006106f182610935565b90508073ffffffffffffffffffffffffffffffffffffffff168373ffffffffffffffffffffffffffffffffffffffff161415610762576040517f08c379a00000000000000000000000000000000000000000000000000000000081526004016107599061377a565b60405180910390fd5b8073ffffffffffffffffffffffffffffffffffffffff166107816119d8565b73ffffffffffffffffffffffffffffffffffffffff1614806107b057506107af816107aa6119d8565b61188f565b5b6107ef576040517f08c379a00000000000000000000000000000000000000000000000000000000081526004016107e69061371a565b60405180910390fd5b6107f983836119e0565b505050565b6108088282611a99565b5050565b61081d6108176119d8565b82611b0d565b61085c576040517f08c379a00000000000000000000000000000000000000000000000000000000081526004016108539061379a565b60405180910390fd5b610867838383611ba2565b505050565b6108878383836040518060200160405280600081525061104f565b505050565b600a6020528060005260406000206000915090508060000160009054906101000a900473ffffffffffffffffffffffffffffffffffffffff16908060010154908060020160009054906101000a900473ffffffffffffffffffffffffffffffffffffffff16908060030160009054906101000a900473ffffffffffffffffffffffffffffffffffffffff16908060040154908060050160009054906101000a900460ff16905086565b6000806002600084815260200190815260200160002060009054906101000a900473ffffffffffffffffffffffffffffffffffffffff169050600073ffffffffffffffffffffffffffffffffffffffff168173ffffffffffffffffffffffffffffffffffffffff1614156109de576040517f08c379a00000000000000000000000000000000000000000000000000000000081526004016109d59061375a565b60405180910390fd5b80915050919050565b600960009054906101000a900473ffffffffffffffffffffffffffffffffffffffff1681565b600073ffffffffffffffffffffffffffffffffffffffff168273ffffffffffffffffffffffffffffffffffffffff1614610ab5578173ffffffffffffffffffffffffffffffffffffffff166323b872dd8585846040518463ffffffff1660e01b8152600401610a7e93929190613482565b600060405180830381600087803b158015610a9857600080fd5b505af1158015610aac573d6000803e3d6000fd5b50505050610b2a565b8273ffffffffffffffffffffffffffffffffffffffff166108fc829081150290604051600060405180830381858888f19350505050610b29576040517f08c379a0000000000000000000000000000000000000000000000000000000008152600401610b20906136fa565b60405180910390fd5b5b50505050565b60008073ffffffffffffffffffffffffffffffffffffffff168273ffffffffffffffffffffffffffffffffffffffff161415610ba1576040517f08c379a0000000000000000000000000000000000000000000000000000000008152600401610b98906136ba565b60405180910390fd5b600360008373ffffffffffffffffffffffffffffffffffffffff1673ffffffffffffffffffffffffffffffffffffffff168152602001908152602001600020549050919050565b60085481565b6000610bf9856111c4565b90506000600a60008781526020019081526020016000206040518060c00160405290816000820160009054906101000a900473ffffffffffffffffffffffffffffffffffffffff1673ffffffffffffffffffffffffffffffffffffffff1673ffffffffffffffffffffffffffffffffffffffff168152602001600182015481526020016002820160009054906101000a900473ffffffffffffffffffffffffffffffffffffffff1673ffffffffffffffffffffffffffffffffffffffff1673ffffffffffffffffffffffffffffffffffffffff1681526020016003820160009054906101000a900473ffffffffffffffffffffffffffffffffffffffff1673ffffffffffffffffffffffffffffffffffffffff1673ffffffffffffffffffffffffffffffffffffffff168152602001600482015481526020016005820160009054906101000a900460ff161515151581525050905081341015610d91576040517f08c379a0000000000000000000000000000000000000000000000000000000008152600401610d889061365a565b60405180910390fd5b8060a0015115610dd6576040517f08c379a0000000000000000000000000000000000000000000000000000000008152600401610dcd906135da565b60405180910390fd5b806040015173ffffffffffffffffffffffffffffffffffffffff166108fc82608001519081150290604051600060405180830381858888f19350505050158015610e24573d6000803e3d6000fd5b50600960009054906101000a900473ffffffffffffffffffffffffffffffffffffffff1673ffffffffffffffffffffffffffffffffffffffff166108fc826080015184610e7191906139a9565b9081150290604051600060405180830381858888f19350505050158015610e9c573d6000803e3d6000fd5b5060018160a00190151590811515815250508273ffffffffffffffffffffffffffffffffffffffff166323b872dd303384602001516040518463ffffffff1660e01b8152600401610eef939291906134b9565b600060405180830381600087803b158015610f0957600080fd5b505af1158015610f1d573d6000803e3d6000fd5b505050503373ffffffffffffffffffffffffffffffffffffffff168573ffffffffffffffffffffffffffffffffffffffff163073ffffffffffffffffffffffffffffffffffffffff167feb63d138ac814e90b4d90e51c5d97954429da77f7266e9aa0bf33bd9863f131d8988604051610f979291906137d5565b60405180910390a4505050505050565b606060018054610fb690613adb565b80601f0160208091040260200160405190810160405280929190818152602001828054610fe290613adb565b801561102f5780601f106110045761010080835404028352916020019161102f565b820191906000526020600020905b81548152906001019060200180831161101257829003601f168201915b5050505050905090565b61104b6110446119d8565b8383611e09565b5050565b61106061105a6119d8565b83611b0d565b61109f576040517f08c379a00000000000000000000000000000000000000000000000000000000081526004016110969061379a565b60405180910390fd5b6110ab84848484611f76565b50505050565b60606110bc8261198d565b60006006600084815260200190815260200160002080546110dc90613adb565b80601f016020809104026020016040519081016040528092919081815260200182805461110890613adb565b80156111555780601f1061112a57610100808354040283529160200191611155565b820191906000526020600020905b81548152906001019060200180831161113857829003601f168201915b505050505090506000611166611fd2565b905060008151141561117c5781925050506111bf565b6000825111156111b1578082604051602001611199929190613369565b604051602081830303815290604052925050506111bf565b6111ba84611fe9565b925050505b919050565b6000606460085460646111d791906138c8565b600a6000858152602001908152602001600020600401546111f8919061394f565b611202919061391e565b9050919050565b60006112156007612051565b9050611221848261205f565b611229612a10565b60405180610120016040528060fd815260200161423460fd91398160006006811061127d577f4e487b7100000000000000000000000000000000000000000000000000000000600052603260045260246000fd5b602002018190525060405180606001604052806028815260200161420c60289139816001600681106112d8577f4e487b7100000000000000000000000000000000000000000000000000000000600052603260045260246000fd5b60200201819052506112e98261207d565b81600260068110611323577f4e487b7100000000000000000000000000000000000000000000000000000000600052603260045260246000fd5b60200201819052506040518060400160405280600281526020017f20230000000000000000000000000000000000000000000000000000000000008152508160036006811061139b577f4e487b7100000000000000000000000000000000000000000000000000000000600052603260045260246000fd5b602002018190525082816004600681106113de577f4e487b7100000000000000000000000000000000000000000000000000000000600052603260045260246000fd5b60200201819052506040518060400160405280600d81526020017f3c2f746578743e3c2f7376673e0000000000000000000000000000000000000081525081600560068110611456577f4e487b7100000000000000000000000000000000000000000000000000000000600052603260045260246000fd5b602002018190525060008160006006811061149a577f4e487b7100000000000000000000000000000000000000000000000000000000600052603260045260246000fd5b6020020151826001600681106114d9577f4e487b7100000000000000000000000000000000000000000000000000000000600052603260045260246000fd5b602002015183600260068110611518577f4e487b7100000000000000000000000000000000000000000000000000000000600052603260045260246000fd5b602002015184600360068110611557577f4e487b7100000000000000000000000000000000000000000000000000000000600052603260045260246000fd5b602002015185600460068110611596577f4e487b7100000000000000000000000000000000000000000000000000000000600052603260045260246000fd5b6020020151866005600681106115d5577f4e487b7100000000000000000000000000000000000000000000000000000000600052603260045260246000fd5b60200201516040516020016115ef9695949392919061338d565b6040516020818303038152906040529050806040516020016116119190613352565b6040516020818303038152906040529050600061165e6116308561207d565b6116398461222a565b60405160200161164a9291906133e5565b60405160208183030381529060405261222a565b905080604051602001611671919061342a565b604051602081830303815290604052915061168c8483611a99565b61169660076123e8565b6040518060c001604052803073ffffffffffffffffffffffffffffffffffffffff1681526020018581526020018873ffffffffffffffffffffffffffffffffffffffff168152602001600073ffffffffffffffffffffffffffffffffffffffff16815260200187815260200160001515815250600a600086815260200190815260200160002060008201518160000160006101000a81548173ffffffffffffffffffffffffffffffffffffffff021916908373ffffffffffffffffffffffffffffffffffffffff1602179055506020820151816001015560408201518160020160006101000a81548173ffffffffffffffffffffffffffffffffffffffff021916908373ffffffffffffffffffffffffffffffffffffffff16021790555060608201518160030160006101000a81548173ffffffffffffffffffffffffffffffffffffffff021916908373ffffffffffffffffffffffffffffffffffffffff1602179055506080820151816004015560a08201518160050160006101000a81548160ff021916908315150217905550905050833073ffffffffffffffffffffffffffffffffffffffff167f4e87d65c4baed28b185aa1f2f583850f4140e7ee01ee27c4e06f622d085b1bfc8960008a604051611874939291906134b9565b60405180910390a361188660076123e8565b50505050505050565b6000600560008473ffffffffffffffffffffffffffffffffffffffff1673ffffffffffffffffffffffffffffffffffffffff16815260200190815260200160002060008373ffffffffffffffffffffffffffffffffffffffff1673ffffffffffffffffffffffffffffffffffffffff16815260200190815260200160002060009054906101000a900460ff16905092915050565b60007f01ffc9a7000000000000000000000000000000000000000000000000000000007bffffffffffffffffffffffffffffffffffffffffffffffffffffffff1916827bffffffffffffffffffffffffffffffffffffffffffffffffffffffff1916149050919050565b611996816123fe565b6119d5576040517f08c379a00000000000000000000000000000000000000000000000000000000081526004016119cc9061375a565b60405180910390fd5b50565b600033905090565b816004600083815260200190815260200160002060006101000a81548173ffffffffffffffffffffffffffffffffffffffff021916908373ffffffffffffffffffffffffffffffffffffffff160217905550808273ffffffffffffffffffffffffffffffffffffffff16611a5383610935565b73ffffffffffffffffffffffffffffffffffffffff167f8c5be1e5ebec7d5bd14f71427d1e84f3dd0314c0f7b2291e5b200ac8c7c3b92560405160405180910390a45050565b611aa2826123fe565b611ae1576040517f08c379a0000000000000000000000000000000000000000000000000000000008152600401611ad8906136da565b60405180910390fd5b80600660008481526020019081526020016000209080519060200190611b08929190612a37565b505050565b600080611b1983610935565b90508073ffffffffffffffffffffffffffffffffffffffff168473ffffffffffffffffffffffffffffffffffffffff161480611b5b5750611b5a818561188f565b5b80611b9957508373ffffffffffffffffffffffffffffffffffffffff16611b81846106a0565b73ffffffffffffffffffffffffffffffffffffffff16145b91505092915050565b8273ffffffffffffffffffffffffffffffffffffffff16611bc282610935565b73ffffffffffffffffffffffffffffffffffffffff1614611c18576040517f08c379a0000000000000000000000000000000000000000000000000000000008152600401611c0f9061361a565b60405180910390fd5b600073ffffffffffffffffffffffffffffffffffffffff168273ffffffffffffffffffffffffffffffffffffffff161415611c88576040517f08c379a0000000000000000000000000000000000000000000000000000000008152600401611c7f9061367a565b60405180910390fd5b611c9383838361246a565b611c9e6000826119e0565b6001600360008573ffffffffffffffffffffffffffffffffffffffff1673ffffffffffffffffffffffffffffffffffffffff1681526020019081526020016000206000828254611cee91906139a9565b925050819055506001600360008473ffffffffffffffffffffffffffffffffffffffff1673ffffffffffffffffffffffffffffffffffffffff1681526020019081526020016000206000828254611d4591906138c8565b92505081905550816002600083815260200190815260200160002060006101000a81548173ffffffffffffffffffffffffffffffffffffffff021916908373ffffffffffffffffffffffffffffffffffffffff160217905550808273ffffffffffffffffffffffffffffffffffffffff168473ffffffffffffffffffffffffffffffffffffffff167fddf252ad1be2c89b69c2b068fc378daa952ba7f163c4a11628f55a4df523b3ef60405160405180910390a4611e0483838361246f565b505050565b8173ffffffffffffffffffffffffffffffffffffffff168373ffffffffffffffffffffffffffffffffffffffff161415611e78576040517f08c379a0000000000000000000000000000000000000000000000000000000008152600401611e6f9061369a565b60405180910390fd5b80600560008573ffffffffffffffffffffffffffffffffffffffff1673ffffffffffffffffffffffffffffffffffffffff16815260200190815260200160002060008473ffffffffffffffffffffffffffffffffffffffff1673ffffffffffffffffffffffffffffffffffffffff16815260200190815260200160002060006101000a81548160ff0219169083151502179055508173ffffffffffffffffffffffffffffffffffffffff168373ffffffffffffffffffffffffffffffffffffffff167f17307eab39ab6107e8899845ad3d59bd9653f200f220920489ca2b5937696c3183604051611f69919061359d565b60405180910390a3505050565b611f81848484611ba2565b611f8d84848484612474565b611fcc576040517f08c379a0000000000000000000000000000000000000000000000000000000008152600401611fc3906135fa565b60405180910390fd5b50505050565b606060405180602001604052806000815250905090565b6060611ff48261198d565b6000611ffe611fd2565b9050600081511161201e5760405180602001604052806000815250612049565b806120288461260b565b604051602001612039929190613369565b6040516020818303038152906040525b915050919050565b600081600001549050919050565b6120798282604051806020016040528060008152506127b8565b5050565b606060008214156120c5576040518060400160405280600181526020017f30000000000000000000000000000000000000000000000000000000000000008152509050612225565b600082905060005b600082146120f75780806120e090613b3e565b915050600a826120f0919061391e565b91506120cd565b60008167ffffffffffffffff811115612139577f4e487b7100000000000000000000000000000000000000000000000000000000600052604160045260246000fd5b6040519080825280601f01601f19166020018201604052801561216b5781602001600182028036833780820191505090505b5090505b6000851461221e5760018261218491906139a9565b9150600a856121939190613b87565b603061219f91906138c8565b60f81b8183815181106121db577f4e487b7100000000000000000000000000000000000000000000000000000000600052603260045260246000fd5b60200101907effffffffffffffffffffffffffffffffffffffffffffffffffffffffffffff1916908160001a905350600a85612217919061391e565b945061216f565b8093505050505b919050565b6060600082519050600081141561225357604051806020016040528060008152509150506123e3565b6000600360028361226491906138c8565b61226e919061391e565b600461227a919061394f565b9050600060208261228b91906138c8565b67ffffffffffffffff8111156122ca577f4e487b7100000000000000000000000000000000000000000000000000000000600052604160045260246000fd5b6040519080825280601f01601f1916602001820160405280156122fc5781602001600182028036833780820191505090505b50905060006040518060600160405280604081526020016141cc604091399050600181016020830160005b868110156123a05760038101905062ffffff818a015116603f8160121c168401518060081b905060ff603f83600c1c1686015116810190508060081b905060ff603f8360061c1686015116810190508060081b905060ff603f831686015116810190508060e01b90508084526004840193505050612327565b5060038606600181146123ba57600281146123ca576123d5565b613d3d60f01b60028303526123d5565b603d60f81b60018303525b508484525050819450505050505b919050565b6001816000016000828254019250508190555050565b60008073ffffffffffffffffffffffffffffffffffffffff166002600084815260200190815260200160002060009054906101000a900473ffffffffffffffffffffffffffffffffffffffff1673ffffffffffffffffffffffffffffffffffffffff1614159050919050565b505050565b505050565b60006124958473ffffffffffffffffffffffffffffffffffffffff16612813565b156125fe578373ffffffffffffffffffffffffffffffffffffffff1663150b7a026124be6119d8565b8786866040518563ffffffff1660e01b81526004016124e094939291906134f0565b602060405180830381600087803b1580156124fa57600080fd5b505af192505050801561252b57506040513d601f19601f820116820180604052508101906125289190612ec2565b60015b6125ae573d806000811461255b576040519150601f19603f3d011682016040523d82523d6000602084013e612560565b606091505b506000815114156125a6576040517f08c379a000000000000000000000000000000000000000000000000000000000815260040161259d906135fa565b60405180910390fd5b805181602001fd5b63150b7a0260e01b7bffffffffffffffffffffffffffffffffffffffffffffffffffffffff1916817bffffffffffffffffffffffffffffffffffffffffffffffffffffffff191614915050612603565b600190505b949350505050565b60606000821415612653576040518060400160405280600181526020017f300000000000000000000000000000000000000000000000000000000000000081525090506127b3565b600082905060005b6000821461268557808061266e90613b3e565b915050600a8261267e919061391e565b915061265b565b60008167ffffffffffffffff8111156126c7577f4e487b7100000000000000000000000000000000000000000000000000000000600052604160045260246000fd5b6040519080825280601f01601f1916602001820160405280156126f95781602001600182028036833780820191505090505b5090505b600085146127ac5760018261271291906139a9565b9150600a856127219190613b87565b603061272d91906138c8565b60f81b818381518110612769577f4e487b7100000000000000000000000000000000000000000000000000000000600052603260045260246000fd5b60200101907effffffffffffffffffffffffffffffffffffffffffffffffffffffffffffff1916908160001a905350600a856127a5919061391e565b94506126fd565b8093505050505b919050565b6127c28383612836565b6127cf6000848484612474565b61280e576040517f08c379a0000000000000000000000000000000000000000000000000000000008152600401612805906135fa565b60405180910390fd5b505050565b6000808273ffffffffffffffffffffffffffffffffffffffff163b119050919050565b600073ffffffffffffffffffffffffffffffffffffffff168273ffffffffffffffffffffffffffffffffffffffff1614156128a6576040517f08c379a000000000000000000000000000000000000000000000000000000000815260040161289d9061373a565b60405180910390fd5b6128af816123fe565b156128ef576040517f08c379a00000000000000000000000000000000000000000000000000000000081526004016128e69061363a565b60405180910390fd5b6128fb6000838361246a565b6001600360008473ffffffffffffffffffffffffffffffffffffffff1673ffffffffffffffffffffffffffffffffffffffff168152602001908152602001600020600082825461294b91906138c8565b92505081905550816002600083815260200190815260200160002060006101000a81548173ffffffffffffffffffffffffffffffffffffffff021916908373ffffffffffffffffffffffffffffffffffffffff160217905550808273ffffffffffffffffffffffffffffffffffffffff16600073ffffffffffffffffffffffffffffffffffffffff167fddf252ad1be2c89b69c2b068fc378daa952ba7f163c4a11628f55a4df523b3ef60405160405180910390a4612a0c6000838361246f565b5050565b6040518060c001604052806006905b6060815260200190600190039081612a1f5790505090565b828054612a4390613adb565b90600052602060002090601f016020900481019282612a655760008555612aac565b82601f10612a7e57805160ff1916838001178555612aac565b82800160010185558215612aac579182015b82811115612aab578251825591602001919060010190612a90565b5b509050612ab99190612abd565b5090565b5b80821115612ad6576000816000905550600101612abe565b5090565b6000612aed612ae884613823565b6137fe565b905082815260208101848484011115612b0557600080fd5b612b10848285613a99565b509392505050565b6000612b2b612b2684613854565b6137fe565b905082815260208101848484011115612b4357600080fd5b612b4e848285613a99565b509392505050565b600081359050612b6581614158565b92915050565b600081359050612b7a8161416f565b92915050565b600081359050612b8f81614186565b92915050565b600081359050612ba48161419d565b92915050565b600081519050612bb98161419d565b92915050565b600082601f830112612bd057600080fd5b8135612be0848260208601612ada565b91505092915050565b600082601f830112612bfa57600080fd5b8135612c0a848260208601612b18565b91505092915050565b600081359050612c22816141b4565b92915050565b600060208284031215612c3a57600080fd5b6000612c4884828501612b56565b91505092915050565b60008060408385031215612c6457600080fd5b6000612c7285828601612b56565b9250506020612c8385828601612b56565b9150509250929050565b60008060008060808587031215612ca357600080fd5b6000612cb187828801612b56565b9450506020612cc287828801612b6b565b9350506040612cd387828801612b56565b9250506060612ce487828801612c13565b91505092959194509250565b600080600060608486031215612d0557600080fd5b6000612d1386828701612b56565b9350506020612d2486828701612b56565b9250506040612d3586828701612c13565b9150509250925092565b60008060008060808587031215612d5557600080fd5b6000612d6387828801612b56565b9450506020612d7487828801612b56565b9350506040612d8587828801612c13565b925050606085013567ffffffffffffffff811115612da257600080fd5b612dae87828801612bbf565b91505092959194509250565b60008060408385031215612dcd57600080fd5b6000612ddb85828601612b56565b9250506020612dec85828601612b80565b9150509250929050565b60008060408385031215612e0957600080fd5b6000612e1785828601612b56565b9250506020612e2885828601612c13565b9150509250929050565b600080600060608486031215612e4757600080fd5b6000612e5586828701612b56565b9350506020612e6686828701612c13565b925050604084013567ffffffffffffffff811115612e8357600080fd5b612e8f86828701612be9565b9150509250925092565b600060208284031215612eab57600080fd5b6000612eb984828501612b95565b91505092915050565b600060208284031215612ed457600080fd5b6000612ee284828501612baa565b91505092915050565b600060208284031215612efd57600080fd5b6000612f0b84828501612c13565b91505092915050565b60008060008060808587031215612f2a57600080fd5b6000612f3887828801612c13565b9450506020612f4987828801612b56565b9350506040612f5a87828801612c13565b9250506060612f6b87828801612b56565b91505092959194509250565b60008060408385031215612f8a57600080fd5b6000612f9885828601612c13565b925050602083013567ffffffffffffffff811115612fb557600080fd5b612fc185828601612be9565b9150509250929050565b612fd481613a63565b82525050565b612fe3816139ef565b82525050565b612ff2816139dd565b82525050565b61300181613a01565b82525050565b600061301282613885565b61301c818561389b565b935061302c818560208601613aa8565b61303581613c74565b840191505092915050565b600061304b82613890565b61305581856138ac565b9350613065818560208601613aa8565b61306e81613c74565b840191505092915050565b600061308482613890565b61308e81856138bd565b935061309e818560208601613aa8565b80840191505092915050565b60006130b76011836138ac565b91506130c282613c85565b602082019050919050565b60006130da6032836138ac565b91506130e582613cae565b604082019050919050565b60006130fd6025836138ac565b915061310882613cfd565b604082019050919050565b6000613120601c836138ac565b915061312b82613d4c565b602082019050919050565b60006131436014836138bd565b915061314e82613d75565b601482019050919050565b60006131666033836138ac565b915061317182613d9e565b604082019050919050565b60006131896024836138ac565b915061319482613ded565b604082019050919050565b60006131ac6019836138ac565b91506131b782613e3c565b602082019050919050565b60006131cf6029836138ac565b91506131da82613e65565b604082019050919050565b60006131f2602e836138ac565b91506131fd82613eb4565b604082019050919050565b60006132156022836138ac565b915061322082613f03565b604082019050919050565b60006132386002836138bd565b915061324382613f52565b600282019050919050565b600061325b603e836138ac565b915061326682613f7b565b604082019050919050565b600061327e6020836138ac565b915061328982613fca565b602082019050919050565b60006132a1605a836138bd565b91506132ac82613ff3565b605a82019050919050565b60006132c46018836138ac565b91506132cf82614068565b602082019050919050565b60006132e76021836138ac565b91506132f282614091565b604082019050919050565b600061330a601d836138bd565b9150613315826140e0565b601d82019050919050565b600061332d602e836138ac565b915061333882614109565b604082019050919050565b61334c81613a59565b82525050565b600061335e8284613079565b915081905092915050565b60006133758285613079565b91506133818284613079565b91508190509392505050565b60006133998289613079565b91506133a58288613079565b91506133b18287613079565b91506133bd8286613079565b91506133c98285613079565b91506133d58284613079565b9150819050979650505050505050565b60006133f082613136565b91506133fc8285613079565b915061340782613294565b91506134138284613079565b915061341e8261322b565b91508190509392505050565b6000613435826132fd565b91506134418284613079565b915081905092915050565b60006020820190506134616000830184612fe9565b92915050565b600060208201905061347c6000830184612fda565b92915050565b60006060820190506134976000830186612fe9565b6134a46020830185612fcb565b6134b16040830184613343565b949350505050565b60006060820190506134ce6000830186612fe9565b6134db6020830185612fe9565b6134e86040830184613343565b949350505050565b60006080820190506135056000830187612fe9565b6135126020830186612fe9565b61351f6040830185613343565b81810360608301526135318184613007565b905095945050505050565b600060c0820190506135516000830189612fe9565b61355e6020830188613343565b61356b6040830187612fda565b6135786060830186612fda565b6135856080830185613343565b61359260a0830184612ff8565b979650505050505050565b60006020820190506135b26000830184612ff8565b92915050565b600060208201905081810360008301526135d28184613040565b905092915050565b600060208201905081810360008301526135f3816130aa565b9050919050565b60006020820190508181036000830152613613816130cd565b9050919050565b60006020820190508181036000830152613633816130f0565b9050919050565b6000602082019050818103600083015261365381613113565b9050919050565b6000602082019050818103600083015261367381613159565b9050919050565b600060208201905081810360008301526136938161317c565b9050919050565b600060208201905081810360008301526136b38161319f565b9050919050565b600060208201905081810360008301526136d3816131c2565b9050919050565b600060208201905081810360008301526136f3816131e5565b9050919050565b6000602082019050818103600083015261371381613208565b9050919050565b600060208201905081810360008301526137338161324e565b9050919050565b6000602082019050818103600083015261375381613271565b9050919050565b60006020820190508181036000830152613773816132b7565b9050919050565b60006020820190508181036000830152613793816132da565b9050919050565b600060208201905081810360008301526137b381613320565b9050919050565b60006020820190506137cf6000830184613343565b92915050565b60006040820190506137ea6000830185613343565b6137f76020830184613343565b9392505050565b6000613808613819565b90506138148282613b0d565b919050565b6000604051905090565b600067ffffffffffffffff82111561383e5761383d613c45565b5b61384782613c74565b9050602081019050919050565b600067ffffffffffffffff82111561386f5761386e613c45565b5b61387882613c74565b9050602081019050919050565b600081519050919050565b600081519050919050565b600082825260208201905092915050565b600082825260208201905092915050565b600081905092915050565b60006138d382613a59565b91506138de83613a59565b9250827fffffffffffffffffffffffffffffffffffffffffffffffffffffffffffffffff0382111561391357613912613bb8565b5b828201905092915050565b600061392982613a59565b915061393483613a59565b92508261394457613943613be7565b5b828204905092915050565b600061395a82613a59565b915061396583613a59565b9250817fffffffffffffffffffffffffffffffffffffffffffffffffffffffffffffffff048311821515161561399e5761399d613bb8565b5b828202905092915050565b60006139b482613a59565b91506139bf83613a59565b9250828210156139d2576139d1613bb8565b5b828203905092915050565b60006139e882613a39565b9050919050565b60006139fa82613a39565b9050919050565b60008115159050919050565b60007fffffffff0000000000000000000000000000000000000000000000000000000082169050919050565b600073ffffffffffffffffffffffffffffffffffffffff82169050919050565b6000819050919050565b6000613a6e82613a75565b9050919050565b6000613a8082613a87565b9050919050565b6000613a9282613a39565b9050919050565b82818337600083830152505050565b60005b83811015613ac6578082015181840152602081019050613aab565b83811115613ad5576000848401525b50505050565b60006002820490506001821680613af357607f821691505b60208210811415613b0757613b06613c16565b5b50919050565b613b1682613c74565b810181811067ffffffffffffffff82111715613b3557613b34613c45565b5b80604052505050565b6000613b4982613a59565b91507fffffffffffffffffffffffffffffffffffffffffffffffffffffffffffffffff821415613b7c57613b7b613bb8565b5b600182019050919050565b6000613b9282613a59565b9150613b9d83613a59565b925082613bad57613bac613be7565b5b828206905092915050565b7f4e487b7100000000000000000000000000000000000000000000000000000000600052601160045260246000fd5b7f4e487b7100000000000000000000000000000000000000000000000000000000600052601260045260246000fd5b7f4e487b7100000000000000000000000000000000000000000000000000000000600052602260045260246000fd5b7f4e487b7100000000000000000000000000000000000000000000000000000000600052604160045260246000fd5b6000601f19601f8301169050919050565b7f6974656d20616c726561647920736f6c64000000000000000000000000000000600082015250565b7f4552433732313a207472616e7366657220746f206e6f6e20455243373231526560008201527f63656976657220696d706c656d656e7465720000000000000000000000000000602082015250565b7f4552433732313a207472616e736665722066726f6d20696e636f72726563742060008201527f6f776e6572000000000000000000000000000000000000000000000000000000602082015250565b7f4552433732313a20746f6b656e20616c7265616479206d696e74656400000000600082015250565b7f7b226e616d65223a202253746f72795061642023000000000000000000000000600082015250565b7f6e6f7420656e6f75676820657468657220746f20636f766572206974656d207060008201527f7269636520616e64206d61726b65742066656500000000000000000000000000602082015250565b7f4552433732313a207472616e7366657220746f20746865207a65726f2061646460008201527f7265737300000000000000000000000000000000000000000000000000000000602082015250565b7f4552433732313a20617070726f766520746f2063616c6c657200000000000000600082015250565b7f4552433732313a2061646472657373207a65726f206973206e6f74206120766160008201527f6c6964206f776e65720000000000000000000000000000000000000000000000602082015250565b7f45524337323155524953746f726167653a2055524920736574206f66206e6f6e60008201527f6578697374656e7420746f6b656e000000000000000000000000000000000000602082015250565b7f5472616e73666572206f662045544820746f207265636569766572206661696c60008201527f6564000000000000000000000000000000000000000000000000000000000000602082015250565b7f227d000000000000000000000000000000000000000000000000000000000000600082015250565b7f4552433732313a20617070726f76652063616c6c6572206973206e6f7420746f60008201527f6b656e206f776e6572206e6f7220617070726f76656420666f7220616c6c0000602082015250565b7f4552433732313a206d696e7420746f20746865207a65726f2061646472657373600082015250565b7f222c20226465736372697074696f6e223a20225468697320697320617574686f60008201527f72206e66742066726f6d2073746f7279706164222c2022696d616765223a202260208201527f646174613a696d6167652f7376672b786d6c3b6261736536342c000000000000604082015250565b7f4552433732313a20696e76616c696420746f6b656e2049440000000000000000600082015250565b7f4552433732313a20617070726f76616c20746f2063757272656e74206f776e6560008201527f7200000000000000000000000000000000000000000000000000000000000000602082015250565b7f646174613a6170706c69636174696f6e2f6a736f6e3b6261736536342c000000600082015250565b7f4552433732313a2063616c6c6572206973206e6f7420746f6b656e206f776e6560008201527f72206e6f7220617070726f766564000000000000000000000000000000000000602082015250565b614161816139dd565b811461416c57600080fd5b50565b614178816139ef565b811461418357600080fd5b50565b61418f81613a01565b811461419a57600080fd5b50565b6141a681613a0d565b81146141b157600080fd5b50565b6141bd81613a59565b81146141c857600080fd5b5056fe4142434445464748494a4b4c4d4e4f505152535455565758595a6162636465666768696a6b6c6d6e6f707172737475767778797a303132333435363738392b2f3c2f746578743e3c7465787420783d2231302220793d2234302220636c6173733d2262617365223e3c73766720786d6c6e733d22687474703a2f2f7777772e77332e6f72672f323030302f73766722207072657365727665417370656374526174696f3d22784d696e594d696e206d656574222076696577426f783d223020302033353020333530223e3c7374796c653e2e62617365207b2066696c6c3a20626c61636b3b20666f6e742d66616d696c793a2073657269663b20666f6e742d73697a653a20313470783b207d3c2f7374796c653e3c726563742077696474683d223130302522206865696768743d2231303025222066696c6c3d22776869746522202f3e3c7465787420783d2231302220793d2232302220636c6173733d2262617365223ea2646970667358221220468088d97cdc734a3f3ccd6653a700cf05761305d17726e8f6714784e2d2714864736f6c63430008040033a264697066735822122033ad6893fbef01ae6cdb0c9d1bde66b3175f9750eb7a531f4fe4c4d7b314227d64736f6c63430008040033",
  "linkReferences": {},
  "deployedLinkReferences": {}
}